{
  "contractName": "TodoList",
  "abi": [
    {
      "inputs": [],
      "stateMutability": "nonpayable",
      "type": "constructor"
    },
    {
      "anonymous": false,
      "inputs": [
        {
          "indexed": false,
          "internalType": "uint256",
          "name": "id",
          "type": "uint256"
        },
        {
          "indexed": false,
          "internalType": "bool",
          "name": "completed",
          "type": "bool"
        }
      ],
      "name": "TaskCompleted",
      "type": "event"
    },
    {
      "anonymous": false,
      "inputs": [
        {
          "indexed": false,
          "internalType": "uint256",
          "name": "id",
          "type": "uint256"
        },
        {
          "indexed": false,
          "internalType": "string",
          "name": "content",
          "type": "string"
        },
        {
          "indexed": false,
          "internalType": "bool",
          "name": "completed",
          "type": "bool"
        }
      ],
      "name": "TaskCreated",
      "type": "event"
    },
    {
      "inputs": [
        {
          "internalType": "address",
          "name": "",
          "type": "address"
        },
        {
          "internalType": "uint256",
          "name": "",
          "type": "uint256"
        }
      ],
      "name": "tasks",
      "outputs": [
        {
          "internalType": "uint256",
          "name": "id",
          "type": "uint256"
        },
        {
          "internalType": "string",
          "name": "content",
          "type": "string"
        },
        {
          "internalType": "bool",
          "name": "completed",
          "type": "bool"
        }
      ],
      "stateMutability": "view",
      "type": "function",
      "constant": true
    },
    {
      "inputs": [
        {
          "internalType": "address",
          "name": "",
          "type": "address"
        }
      ],
      "name": "tasksCount",
      "outputs": [
        {
          "internalType": "uint256",
          "name": "",
          "type": "uint256"
        }
      ],
      "stateMutability": "view",
      "type": "function",
      "constant": true
    },
    {
      "inputs": [
        {
          "internalType": "string",
          "name": "_content",
          "type": "string"
        }
      ],
      "name": "createTask",
      "outputs": [],
      "stateMutability": "nonpayable",
      "type": "function"
    },
    {
      "inputs": [
        {
          "internalType": "uint256",
          "name": "_id",
          "type": "uint256"
        }
      ],
      "name": "toggleCompleted",
      "outputs": [],
      "stateMutability": "nonpayable",
      "type": "function"
    }
  ],
  "bytecode": "0x60806040523480156200001157600080fd5b50620000586040518060400160405280600b81526020017f48656c6c6f20576f726c640000000000000000000000000000000000000000008152506200005e60201b60201c565b620004a6565b6000600160003373ffffffffffffffffffffffffffffffffffffffff1673ffffffffffffffffffffffffffffffffffffffff1681526020019081526020016000205490506040518060600160405280828152602001838152602001600015158152506000803373ffffffffffffffffffffffffffffffffffffffff1673ffffffffffffffffffffffffffffffffffffffff168152602001908152602001600020600083815260200190815260200160002060008201518160000155602082015181600101908051906020019062000137929190620001f4565b5060408201518160020160006101000a81548160ff0219169083151502179055509050507f05d0fb833127fc08168556d0e7ca9554fc3f6bc843b3b7d2bf1c35aea6bab66081836000604051620001919392919062000380565b60405180910390a1600160003373ffffffffffffffffffffffffffffffffffffffff1673ffffffffffffffffffffffffffffffffffffffff1681526020019081526020016000206000815480929190620001eb90620003f3565b91905055505050565b828054620002029062000470565b90600052602060002090601f01602090048101928262000226576000855562000272565b82601f106200024157805160ff191683800117855562000272565b8280016001018555821562000272579182015b828111156200027157825182559160200191906001019062000254565b5b50905062000281919062000285565b5090565b5b80821115620002a057600081600090555060010162000286565b5090565b6000819050919050565b620002b981620002a4565b82525050565b600081519050919050565b600082825260208201905092915050565b60005b83811015620002fb578082015181840152602081019050620002de565b838111156200030b576000848401525b50505050565b6000601f19601f8301169050919050565b60006200032f82620002bf565b6200033b8185620002ca565b93506200034d818560208601620002db565b620003588162000311565b840191505092915050565b60008115159050919050565b6200037a8162000363565b82525050565b6000606082019050620003976000830186620002ae565b8181036020830152620003ab818562000322565b9050620003bc60408301846200036f565b949350505050565b7f4e487b7100000000000000000000000000000000000000000000000000000000600052601160045260246000fd5b60006200040082620002a4565b91507fffffffffffffffffffffffffffffffffffffffffffffffffffffffffffffffff821415620004365762000435620003c4565b5b600182019050919050565b7f4e487b7100000000000000000000000000000000000000000000000000000000600052602260045260246000fd5b600060028204905060018216806200048957607f821691505b60208210811415620004a0576200049f62000441565b5b50919050565b610b1b80620004b66000396000f3fe608060405234801561001057600080fd5b506004361061004c5760003560e01c8063111002aa14610051578063455f50241461006d5780637149d2e4146100895780637b219c39146100bb575b600080fd5b61006b60048036038101906100669190610761565b6100eb565b005b610087600480360381019061008291906107e0565b61027b565b005b6100a3600480360381019061009e919061086b565b610480565b6040516100b29392919061095d565b60405180910390f35b6100d560048036038101906100d0919061099b565b61054c565b6040516100e291906109c8565b60405180910390f35b6000600160003373ffffffffffffffffffffffffffffffffffffffff1673ffffffffffffffffffffffffffffffffffffffff1681526020019081526020016000205490506040518060600160405280828152602001838152602001600015158152506000803373ffffffffffffffffffffffffffffffffffffffff1673ffffffffffffffffffffffffffffffffffffffff16815260200190815260200160002060008381526020019081526020016000206000820151816000015560208201518160010190805190602001906101c2929190610564565b5060408201518160020160006101000a81548160ff0219169083151502179055509050507f05d0fb833127fc08168556d0e7ca9554fc3f6bc843b3b7d2bf1c35aea6bab6608183600060405161021a9392919061095d565b60405180910390a1600160003373ffffffffffffffffffffffffffffffffffffffff1673ffffffffffffffffffffffffffffffffffffffff168152602001908152602001600020600081548092919061027290610a12565b91905055505050565b60008060003373ffffffffffffffffffffffffffffffffffffffff1673ffffffffffffffffffffffffffffffffffffffff1681526020019081526020016000206000838152602001908152602001600020604051806060016040529081600082015481526020016001820180546102f190610a8a565b80601f016020809104026020016040519081016040528092919081815260200182805461031d90610a8a565b801561036a5780601f1061033f5761010080835404028352916020019161036a565b820191906000526020600020905b81548152906001019060200180831161034d57829003601f168201915b505050505081526020016002820160009054906101000a900460ff1615151515815250509050806040015115816040019015159081151581525050806000803373ffffffffffffffffffffffffffffffffffffffff1673ffffffffffffffffffffffffffffffffffffffff168152602001908152602001600020600084815260200190815260200160002060008201518160000155602082015181600101908051906020019061041b929190610564565b5060408201518160020160006101000a81548160ff0219169083151502179055509050507fe21fa966ca5cd02748c0752352d18c48165e61cb55b4c29cccf924b5a95fcff1828260400151604051610474929190610abc565b60405180910390a15050565b6000602052816000526040600020602052806000526040600020600091509150508060000154908060010180546104b690610a8a565b80601f01602080910402602001604051908101604052809291908181526020018280546104e290610a8a565b801561052f5780601f106105045761010080835404028352916020019161052f565b820191906000526020600020905b81548152906001019060200180831161051257829003601f168201915b5050505050908060020160009054906101000a900460ff16905083565b60016020528060005260406000206000915090505481565b82805461057090610a8a565b90600052602060002090601f01602090048101928261059257600085556105d9565b82601f106105ab57805160ff19168380011785556105d9565b828001600101855582156105d9579182015b828111156105d85782518255916020019190600101906105bd565b5b5090506105e691906105ea565b5090565b5b808211156106035760008160009055506001016105eb565b5090565b6000604051905090565b600080fd5b600080fd5b600080fd5b600080fd5b6000601f19601f8301169050919050565b7f4e487b7100000000000000000000000000000000000000000000000000000000600052604160045260246000fd5b61066e82610625565b810181811067ffffffffffffffff8211171561068d5761068c610636565b5b80604052505050565b60006106a0610607565b90506106ac8282610665565b919050565b600067ffffffffffffffff8211156106cc576106cb610636565b5b6106d582610625565b9050602081019050919050565b82818337600083830152505050565b60006107046106ff846106b1565b610696565b9050828152602081018484840111156107205761071f610620565b5b61072b8482856106e2565b509392505050565b600082601f8301126107485761074761061b565b5b81356107588482602086016106f1565b91505092915050565b60006020828403121561077757610776610611565b5b600082013567ffffffffffffffff81111561079557610794610616565b5b6107a184828501610733565b91505092915050565b6000819050919050565b6107bd816107aa565b81146107c857600080fd5b50565b6000813590506107da816107b4565b92915050565b6000602082840312156107f6576107f5610611565b5b6000610804848285016107cb565b91505092915050565b600073ffffffffffffffffffffffffffffffffffffffff82169050919050565b60006108388261080d565b9050919050565b6108488161082d565b811461085357600080fd5b50565b6000813590506108658161083f565b92915050565b6000806040838503121561088257610881610611565b5b600061089085828601610856565b92505060206108a1858286016107cb565b9150509250929050565b6108b4816107aa565b82525050565b600081519050919050565b600082825260208201905092915050565b60005b838110156108f45780820151818401526020810190506108d9565b83811115610903576000848401525b50505050565b6000610914826108ba565b61091e81856108c5565b935061092e8185602086016108d6565b61093781610625565b840191505092915050565b60008115159050919050565b61095781610942565b82525050565b600060608201905061097260008301866108ab565b81810360208301526109848185610909565b9050610993604083018461094e565b949350505050565b6000602082840312156109b1576109b0610611565b5b60006109bf84828501610856565b91505092915050565b60006020820190506109dd60008301846108ab565b92915050565b7f4e487b7100000000000000000000000000000000000000000000000000000000600052601160045260246000fd5b6000610a1d826107aa565b91507fffffffffffffffffffffffffffffffffffffffffffffffffffffffffffffffff821415610a5057610a4f6109e3565b5b600182019050919050565b7f4e487b7100000000000000000000000000000000000000000000000000000000600052602260045260246000fd5b60006002820490506001821680610aa257607f821691505b60208210811415610ab657610ab5610a5b565b5b50919050565b6000604082019050610ad160008301856108ab565b610ade602083018461094e565b939250505056fea26469706673582212209ea4cf258989e59bb6a98977a2aab247909af053a1fe7586846c47092418edc164736f6c634300080b0033",
  "immutableReferences": {},
  "source": "// SPDX-License-Identifier: MIT\npragma solidity ^0.8.11;\n\ncontract TodoList {\n    // string public name = \"Fikri\";\n    struct Task {\n        uint256 id;\n        string content;\n        bool completed;\n    }\n\n    event TaskCreated(uint256 id, string content, bool completed);\n    event TaskCompleted(uint256 id, bool completed);\n\n    mapping(address => mapping(uint => Task)) public tasks;\n    mapping(address => uint) public tasksCount;\n\n    constructor (){\n        createTask(\"Hello World\");\n    }\n\n    function createTask(string memory _content) public{\n        uint taskCount = tasksCount[msg.sender];\n        tasks[msg.sender][taskCount] = Task(taskCount, _content, false);\n        emit TaskCreated(taskCount, _content, false);        \n        tasksCount[msg.sender]++;\n    } \n\n    function toggleCompleted(uint _id) public{\n        Task memory task = tasks[msg.sender][_id];\n        task.completed = !task.completed;   \n        tasks[msg.sender][_id] = task;\n        emit TaskCompleted(_id, task.completed);\n    }\n}\n",
  "sourcePath": "/home/afikri/WebApps/Playground/blockchain/todolist-next/contracts/contracts/TodoList.sol",
  "compiler": {
    "name": "solc",
    "version": "0.8.11+commit.d7f03943.Emscripten.clang"
  },
  "schemaVersion": "3.4.4",
  "updatedAt": "2022-02-22T07:47:45.608Z",
  "networkType": "ethereum",
  "devdoc": {
    "kind": "dev",
    "methods": {},
    "version": 1
  },
  "userdoc": {
    "kind": "user",
    "methods": {},
    "version": 1
  }
}